{
  "_format": "hh-sol-artifact-1",
  "contractName": "NomCoin",
  "sourceName": "contracts/NomCoin.sol",
  "abi": [
    {
      "inputs": [
        {
          "internalType": "uint256",
          "name": "initialSupply",
          "type": "uint256"
        }
      ],
      "stateMutability": "nonpayable",
      "type": "constructor"
    },
    {
      "inputs": [
        {
          "internalType": "address",
          "name": "spender",
          "type": "address"
        },
        {
          "internalType": "uint256",
          "name": "allowance",
          "type": "uint256"
        },
        {
          "internalType": "uint256",
          "name": "needed",
          "type": "uint256"
        }
      ],
      "name": "ERC20InsufficientAllowance",
      "type": "error"
    },
    {
      "inputs": [
        {
          "internalType": "address",
          "name": "sender",
          "type": "address"
        },
        {
          "internalType": "uint256",
          "name": "balance",
          "type": "uint256"
        },
        {
          "internalType": "uint256",
          "name": "needed",
          "type": "uint256"
        }
      ],
      "name": "ERC20InsufficientBalance",
      "type": "error"
    },
    {
      "inputs": [
        {
          "internalType": "address",
          "name": "approver",
          "type": "address"
        }
      ],
      "name": "ERC20InvalidApprover",
      "type": "error"
    },
    {
      "inputs": [
        {
          "internalType": "address",
          "name": "receiver",
          "type": "address"
        }
      ],
      "name": "ERC20InvalidReceiver",
      "type": "error"
    },
    {
      "inputs": [
        {
          "internalType": "address",
          "name": "sender",
          "type": "address"
        }
      ],
      "name": "ERC20InvalidSender",
      "type": "error"
    },
    {
      "inputs": [
        {
          "internalType": "address",
          "name": "spender",
          "type": "address"
        }
      ],
      "name": "ERC20InvalidSpender",
      "type": "error"
    },
    {
      "inputs": [],
      "name": "notAccountOwner",
      "type": "error"
    },
    {
      "inputs": [],
      "name": "onlyOwnerFunction",
      "type": "error"
    },
    {
      "inputs": [],
      "name": "totalSupplyMaxedOut",
      "type": "error"
    },
    {
      "anonymous": false,
      "inputs": [
        {
          "indexed": true,
          "internalType": "address",
          "name": "owner",
          "type": "address"
        },
        {
          "indexed": true,
          "internalType": "address",
          "name": "spender",
          "type": "address"
        },
        {
          "indexed": false,
          "internalType": "uint256",
          "name": "value",
          "type": "uint256"
        }
      ],
      "name": "Approval",
      "type": "event"
    },
    {
      "anonymous": false,
      "inputs": [
        {
          "indexed": true,
          "internalType": "address",
          "name": "from",
          "type": "address"
        },
        {
          "indexed": true,
          "internalType": "address",
          "name": "to",
          "type": "address"
        },
        {
          "indexed": false,
          "internalType": "uint256",
          "name": "value",
          "type": "uint256"
        }
      ],
      "name": "Transfer",
      "type": "event"
    },
    {
      "inputs": [],
      "name": "_totalSupply",
      "outputs": [
        {
          "internalType": "uint256",
          "name": "",
          "type": "uint256"
        }
      ],
      "stateMutability": "view",
      "type": "function"
    },
    {
      "inputs": [
        {
          "internalType": "address",
          "name": "owner",
          "type": "address"
        },
        {
          "internalType": "address",
          "name": "spender",
          "type": "address"
        }
      ],
      "name": "allowance",
      "outputs": [
        {
          "internalType": "uint256",
          "name": "",
          "type": "uint256"
        }
      ],
      "stateMutability": "view",
      "type": "function"
    },
    {
      "inputs": [
        {
          "internalType": "address",
          "name": "spender",
          "type": "address"
        },
        {
          "internalType": "uint256",
          "name": "amount",
          "type": "uint256"
        }
      ],
      "name": "approve",
      "outputs": [
        {
          "internalType": "bool",
          "name": "",
          "type": "bool"
        }
      ],
      "stateMutability": "nonpayable",
      "type": "function"
    },
    {
      "inputs": [
        {
          "internalType": "address",
          "name": "account",
          "type": "address"
        }
      ],
      "name": "balanceOf",
      "outputs": [
        {
          "internalType": "uint256",
          "name": "",
          "type": "uint256"
        }
      ],
      "stateMutability": "view",
      "type": "function"
    },
    {
      "inputs": [
        {
          "internalType": "address",
          "name": "from",
          "type": "address"
        },
        {
          "internalType": "uint256",
          "name": "amount",
          "type": "uint256"
        }
      ],
      "name": "burn",
      "outputs": [],
      "stateMutability": "nonpayable",
      "type": "function"
    },
    {
      "inputs": [],
      "name": "decimals",
      "outputs": [
        {
          "internalType": "uint8",
          "name": "",
          "type": "uint8"
        }
      ],
      "stateMutability": "view",
      "type": "function"
    },
    {
      "inputs": [
        {
          "internalType": "address",
          "name": "account",
          "type": "address"
        }
      ],
      "name": "getBalanceOf",
      "outputs": [
        {
          "internalType": "uint256",
          "name": "",
          "type": "uint256"
        }
      ],
      "stateMutability": "view",
      "type": "function"
    },
    {
      "inputs": [
        {
          "internalType": "address",
          "name": "to",
          "type": "address"
        },
        {
          "internalType": "uint256",
          "name": "amount",
          "type": "uint256"
        }
      ],
      "name": "mint",
      "outputs": [],
      "stateMutability": "nonpayable",
      "type": "function"
    },
    {
      "inputs": [],
      "name": "name",
      "outputs": [
        {
          "internalType": "string",
          "name": "",
          "type": "string"
        }
      ],
      "stateMutability": "view",
      "type": "function"
    },
    {
      "inputs": [],
      "name": "symbol",
      "outputs": [
        {
          "internalType": "string",
          "name": "",
          "type": "string"
        }
      ],
      "stateMutability": "view",
      "type": "function"
    },
    {
      "inputs": [],
      "name": "totalSupply",
      "outputs": [
        {
          "internalType": "uint256",
          "name": "",
          "type": "uint256"
        }
      ],
      "stateMutability": "view",
      "type": "function"
    },
    {
      "inputs": [
        {
          "internalType": "address",
          "name": "to",
          "type": "address"
        },
        {
          "internalType": "uint256",
          "name": "amount",
          "type": "uint256"
        }
      ],
      "name": "transfer",
      "outputs": [
        {
          "internalType": "bool",
          "name": "",
          "type": "bool"
        }
      ],
      "stateMutability": "nonpayable",
      "type": "function"
    },
    {
      "inputs": [
        {
          "internalType": "address",
          "name": "from",
          "type": "address"
        },
        {
          "internalType": "address",
          "name": "to",
          "type": "address"
        },
        {
          "internalType": "uint256",
          "name": "amount",
          "type": "uint256"
        }
      ],
      "name": "transferFrom",
      "outputs": [
        {
          "internalType": "bool",
          "name": "",
          "type": "bool"
        }
      ],
      "stateMutability": "nonpayable",
      "type": "function"
    }
  ],
  "bytecode": "0x60806040526b1027e72f1f1281308800000060065534801561002057600080fd5b506040516119ca3803806119ca83398181016040528101906100429190610466565b6040518060400160405280600781526020017f4e6f6d436f696e000000000000000000000000000000000000000000000000008152506040518060400160405280600381526020017f4e434e000000000000000000000000000000000000000000000000000000000081525081600390816100bd91906106d9565b5080600490816100cd91906106d9565b50505033600560006101000a81548173ffffffffffffffffffffffffffffffffffffffff021916908373ffffffffffffffffffffffffffffffffffffffff160217905550600654600754111561014f576040517f47a6053600000000000000000000000000000000000000000000000000000000815260040160405180910390fd5b806007600082825461016191906107da565b92505081905550610178338261017e60201b60201c565b506108cb565b600073ffffffffffffffffffffffffffffffffffffffff168273ffffffffffffffffffffffffffffffffffffffff16036101f05760006040517fec442f050000000000000000000000000000000000000000000000000000000081526004016101e7919061084f565b60405180910390fd5b6102026000838361020660201b60201c565b5050565b600073ffffffffffffffffffffffffffffffffffffffff168373ffffffffffffffffffffffffffffffffffffffff160361025857806002600082825461024c91906107da565b9250508190555061032b565b60008060008573ffffffffffffffffffffffffffffffffffffffff1673ffffffffffffffffffffffffffffffffffffffff168152602001908152602001600020549050818110156102e4578381836040517fe450d38c0000000000000000000000000000000000000000000000000000000081526004016102db93929190610879565b60405180910390fd5b8181036000808673ffffffffffffffffffffffffffffffffffffffff1673ffffffffffffffffffffffffffffffffffffffff16815260200190815260200160002081905550505b600073ffffffffffffffffffffffffffffffffffffffff168273ffffffffffffffffffffffffffffffffffffffff160361037457806002600082825403925050819055506103c1565b806000808473ffffffffffffffffffffffffffffffffffffffff1673ffffffffffffffffffffffffffffffffffffffff168152602001908152602001600020600082825401925050819055505b8173ffffffffffffffffffffffffffffffffffffffff168373ffffffffffffffffffffffffffffffffffffffff167fddf252ad1be2c89b69c2b068fc378daa952ba7f163c4a11628f55a4df523b3ef8360405161041e91906108b0565b60405180910390a3505050565b600080fd5b6000819050919050565b61044381610430565b811461044e57600080fd5b50565b6000815190506104608161043a565b92915050565b60006020828403121561047c5761047b61042b565b5b600061048a84828501610451565b91505092915050565b600081519050919050565b7f4e487b7100000000000000000000000000000000000000000000000000000000600052604160045260246000fd5b7f4e487b7100000000000000000000000000000000000000000000000000000000600052602260045260246000fd5b6000600282049050600182168061051457607f821691505b602082108103610527576105266104cd565b5b50919050565b60008190508160005260206000209050919050565b60006020601f8301049050919050565b600082821b905092915050565b60006008830261058f7fffffffffffffffffffffffffffffffffffffffffffffffffffffffffffffffff82610552565b6105998683610552565b95508019841693508086168417925050509392505050565b6000819050919050565b60006105d66105d16105cc84610430565b6105b1565b610430565b9050919050565b6000819050919050565b6105f0836105bb565b6106046105fc826105dd565b84845461055f565b825550505050565b600090565b61061961060c565b6106248184846105e7565b505050565b5b818110156106485761063d600082610611565b60018101905061062a565b5050565b601f82111561068d5761065e8161052d565b61066784610542565b81016020851015610676578190505b61068a61068285610542565b830182610629565b50505b505050565b600082821c905092915050565b60006106b060001984600802610692565b1980831691505092915050565b60006106c9838361069f565b9150826002028217905092915050565b6106e282610493565b67ffffffffffffffff8111156106fb576106fa61049e565b5b61070582546104fc565b61071082828561064c565b600060209050601f8311600181146107435760008415610731578287015190505b61073b85826106bd565b8655506107a3565b601f1984166107518661052d565b60005b8281101561077957848901518255600182019150602085019450602081019050610754565b868310156107965784890151610792601f89168261069f565b8355505b6001600288020188555050505b505050505050565b7f4e487b7100000000000000000000000000000000000000000000000000000000600052601160045260246000fd5b60006107e582610430565b91506107f083610430565b9250828201905080821115610808576108076107ab565b5b92915050565b600073ffffffffffffffffffffffffffffffffffffffff82169050919050565b60006108398261080e565b9050919050565b6108498161082e565b82525050565b60006020820190506108646000830184610840565b92915050565b61087381610430565b82525050565b600060608201905061088e6000830186610840565b61089b602083018561086a565b6108a8604083018461086a565b949350505050565b60006020820190506108c5600083018461086a565b92915050565b6110f0806108da6000396000f3fe608060405234801561001057600080fd5b50600436106100cf5760003560e01c806340c10f191161008c5780639b96eece116100665780639b96eece146102165780639dc29fac14610246578063a9059cbb14610262578063dd62ed3e14610292576100cf565b806340c10f19146101ac57806370a08231146101c857806395d89b41146101f8576100cf565b806306fdde03146100d4578063095ea7b3146100f257806318160ddd1461012257806323b872dd14610140578063313ce567146101705780633eaaf86b1461018e575b600080fd5b6100dc6102c2565b6040516100e99190610d44565b60405180910390f35b61010c60048036038101906101079190610dff565b610354565b6040516101199190610e5a565b60405180910390f35b61012a61038f565b6040516101379190610e84565b60405180910390f35b61015a60048036038101906101559190610e9f565b610399565b6040516101679190610e5a565b60405180910390f35b6101786103be565b6040516101859190610f0e565b60405180910390f35b6101966103c7565b6040516101a39190610e84565b60405180910390f35b6101c660048036038101906101c19190610dff565b6103cd565b005b6101e260048036038101906101dd9190610f29565b610483565b6040516101ef9190610e84565b60405180910390f35b6102006104cb565b60405161020d9190610d44565b60405180910390f35b610230600480360381019061022b9190610f29565b61055d565b60405161023d9190610e84565b60405180910390f35b610260600480360381019061025b9190610dff565b61056f565b005b61027c60048036038101906102779190610dff565b6105e2565b6040516102899190610e5a565b60405180910390f35b6102ac60048036038101906102a79190610f56565b6105f9565b6040516102b99190610e84565b60405180910390f35b6060600380546102d190610fc5565b80601f01602080910402602001604051908101604052809291908181526020018280546102fd90610fc5565b801561034a5780601f1061031f5761010080835404028352916020019161034a565b820191906000526020600020905b81548152906001019060200180831161032d57829003601f168201915b5050505050905090565b6000610385600560009054906101000a900473ffffffffffffffffffffffffffffffffffffffff1684846001610680565b6001905092915050565b6000600254905090565b60006103a88484846001610680565b6103b3848484610857565b600190509392505050565b60006012905090565b60075481565b600560009054906101000a900473ffffffffffffffffffffffffffffffffffffffff1673ffffffffffffffffffffffffffffffffffffffff168273ffffffffffffffffffffffffffffffffffffffff1614610454576040517f2a35c4f400000000000000000000000000000000000000000000000000000000815260040160405180910390fd5b80600760008282546104669190611025565b9250508190555061047561094b565b61047f828261098b565b5050565b60008060008373ffffffffffffffffffffffffffffffffffffffff1673ffffffffffffffffffffffffffffffffffffffff168152602001908152602001600020549050919050565b6060600480546104da90610fc5565b80601f016020809104026020016040519081016040528092919081815260200182805461050690610fc5565b80156105535780601f1061052857610100808354040283529160200191610553565b820191906000526020600020905b81548152906001019060200180831161053657829003601f168201915b5050505050905090565b600061056882610483565b9050919050565b8173ffffffffffffffffffffffffffffffffffffffff163373ffffffffffffffffffffffffffffffffffffffff16146105d4576040517f6a59290700000000000000000000000000000000000000000000000000000000815260040160405180910390fd5b6105de8282610a0d565b5050565b60006105ef338484610857565b6001905092915050565b6000600160008473ffffffffffffffffffffffffffffffffffffffff1673ffffffffffffffffffffffffffffffffffffffff16815260200190815260200160002060008373ffffffffffffffffffffffffffffffffffffffff1673ffffffffffffffffffffffffffffffffffffffff16815260200190815260200160002054905092915050565b600073ffffffffffffffffffffffffffffffffffffffff168473ffffffffffffffffffffffffffffffffffffffff16036106f25760006040517fe602df050000000000000000000000000000000000000000000000000000000081526004016106e99190611068565b60405180910390fd5b600073ffffffffffffffffffffffffffffffffffffffff168373ffffffffffffffffffffffffffffffffffffffff16036107645760006040517f94280d6200000000000000000000000000000000000000000000000000000000815260040161075b9190611068565b60405180910390fd5b81600160008673ffffffffffffffffffffffffffffffffffffffff1673ffffffffffffffffffffffffffffffffffffffff16815260200190815260200160002060008573ffffffffffffffffffffffffffffffffffffffff1673ffffffffffffffffffffffffffffffffffffffff168152602001908152602001600020819055508015610851578273ffffffffffffffffffffffffffffffffffffffff168473ffffffffffffffffffffffffffffffffffffffff167f8c5be1e5ebec7d5bd14f71427d1e84f3dd0314c0f7b2291e5b200ac8c7c3b925846040516108489190610e84565b60405180910390a35b50505050565b600073ffffffffffffffffffffffffffffffffffffffff168373ffffffffffffffffffffffffffffffffffffffff16036108c95760006040517f96c6fd1e0000000000000000000000000000000000000000000000000000000081526004016108c09190611068565b60405180910390fd5b600073ffffffffffffffffffffffffffffffffffffffff168273ffffffffffffffffffffffffffffffffffffffff160361093b5760006040517fec442f050000000000000000000000000000000000000000000000000000000081526004016109329190611068565b60405180910390fd5b610946838383610a8f565b505050565b6006546007541115610989576040517f47a6053600000000000000000000000000000000000000000000000000000000815260040160405180910390fd5b565b600073ffffffffffffffffffffffffffffffffffffffff168273ffffffffffffffffffffffffffffffffffffffff16036109fd5760006040517fec442f050000000000000000000000000000000000000000000000000000000081526004016109f49190611068565b60405180910390fd5b610a0960008383610a8f565b5050565b600073ffffffffffffffffffffffffffffffffffffffff168273ffffffffffffffffffffffffffffffffffffffff1603610a7f5760006040517f96c6fd1e000000000000000000000000000000000000000000000000000000008152600401610a769190611068565b60405180910390fd5b610a8b82600083610a8f565b5050565b600073ffffffffffffffffffffffffffffffffffffffff168373ffffffffffffffffffffffffffffffffffffffff1603610ae1578060026000828254610ad59190611025565b92505081905550610bb4565b60008060008573ffffffffffffffffffffffffffffffffffffffff1673ffffffffffffffffffffffffffffffffffffffff16815260200190815260200160002054905081811015610b6d578381836040517fe450d38c000000000000000000000000000000000000000000000000000000008152600401610b6493929190611083565b60405180910390fd5b8181036000808673ffffffffffffffffffffffffffffffffffffffff1673ffffffffffffffffffffffffffffffffffffffff16815260200190815260200160002081905550505b600073ffffffffffffffffffffffffffffffffffffffff168273ffffffffffffffffffffffffffffffffffffffff1603610bfd5780600260008282540392505081905550610c4a565b806000808473ffffffffffffffffffffffffffffffffffffffff1673ffffffffffffffffffffffffffffffffffffffff168152602001908152602001600020600082825401925050819055505b8173ffffffffffffffffffffffffffffffffffffffff168373ffffffffffffffffffffffffffffffffffffffff167fddf252ad1be2c89b69c2b068fc378daa952ba7f163c4a11628f55a4df523b3ef83604051610ca79190610e84565b60405180910390a3505050565b600081519050919050565b600082825260208201905092915050565b60005b83811015610cee578082015181840152602081019050610cd3565b60008484015250505050565b6000601f19601f8301169050919050565b6000610d1682610cb4565b610d208185610cbf565b9350610d30818560208601610cd0565b610d3981610cfa565b840191505092915050565b60006020820190508181036000830152610d5e8184610d0b565b905092915050565b600080fd5b600073ffffffffffffffffffffffffffffffffffffffff82169050919050565b6000610d9682610d6b565b9050919050565b610da681610d8b565b8114610db157600080fd5b50565b600081359050610dc381610d9d565b92915050565b6000819050919050565b610ddc81610dc9565b8114610de757600080fd5b50565b600081359050610df981610dd3565b92915050565b60008060408385031215610e1657610e15610d66565b5b6000610e2485828601610db4565b9250506020610e3585828601610dea565b9150509250929050565b60008115159050919050565b610e5481610e3f565b82525050565b6000602082019050610e6f6000830184610e4b565b92915050565b610e7e81610dc9565b82525050565b6000602082019050610e996000830184610e75565b92915050565b600080600060608486031215610eb857610eb7610d66565b5b6000610ec686828701610db4565b9350506020610ed786828701610db4565b9250506040610ee886828701610dea565b9150509250925092565b600060ff82169050919050565b610f0881610ef2565b82525050565b6000602082019050610f236000830184610eff565b92915050565b600060208284031215610f3f57610f3e610d66565b5b6000610f4d84828501610db4565b91505092915050565b60008060408385031215610f6d57610f6c610d66565b5b6000610f7b85828601610db4565b9250506020610f8c85828601610db4565b9150509250929050565b7f4e487b7100000000000000000000000000000000000000000000000000000000600052602260045260246000fd5b60006002820490506001821680610fdd57607f821691505b602082108103610ff057610fef610f96565b5b50919050565b7f4e487b7100000000000000000000000000000000000000000000000000000000600052601160045260246000fd5b600061103082610dc9565b915061103b83610dc9565b925082820190508082111561105357611052610ff6565b5b92915050565b61106281610d8b565b82525050565b600060208201905061107d6000830184611059565b92915050565b60006060820190506110986000830186611059565b6110a56020830185610e75565b6110b26040830184610e75565b94935050505056fea2646970667358221220ab8ce269b158abf4bc1a9b512f7d6947aca0a0651a24abcfbc99c034f1bb79cc64736f6c634300081b0033",
  "linkReferences": {},
  "deployedLinkReferences": {}
}